{
  "_format": "hh-sol-artifact-1",
  "contractName": "MyRecipeNFT",
  "sourceName": "contracts/MyRecipeNFT.sol",
  "abi": [
    {
      "inputs": [],
      "stateMutability": "nonpayable",
      "type": "constructor"
    },
    {
      "anonymous": false,
      "inputs": [
        {
          "indexed": true,
          "internalType": "address",
          "name": "owner",
          "type": "address"
        },
        {
          "indexed": true,
          "internalType": "address",
          "name": "approved",
          "type": "address"
        },
        {
          "indexed": true,
          "internalType": "uint256",
          "name": "tokenId",
          "type": "uint256"
        }
      ],
      "name": "Approval",
      "type": "event"
    },
    {
      "anonymous": false,
      "inputs": [
        {
          "indexed": true,
          "internalType": "address",
          "name": "owner",
          "type": "address"
        },
        {
          "indexed": true,
          "internalType": "address",
          "name": "operator",
          "type": "address"
        },
        {
          "indexed": false,
          "internalType": "bool",
          "name": "approved",
          "type": "bool"
        }
      ],
      "name": "ApprovalForAll",
      "type": "event"
    },
    {
      "anonymous": false,
      "inputs": [
        {
          "indexed": false,
          "internalType": "address",
          "name": "sender",
          "type": "address"
        },
        {
          "indexed": false,
          "internalType": "uint256",
          "name": "tokenId",
          "type": "uint256"
        }
      ],
      "name": "NewRecipeNFTMinted",
      "type": "event"
    },
    {
      "anonymous": false,
      "inputs": [
        {
          "indexed": true,
          "internalType": "address",
          "name": "from",
          "type": "address"
        },
        {
          "indexed": true,
          "internalType": "address",
          "name": "to",
          "type": "address"
        },
        {
          "indexed": true,
          "internalType": "uint256",
          "name": "tokenId",
          "type": "uint256"
        }
      ],
      "name": "Transfer",
      "type": "event"
    },
    {
      "inputs": [
        {
          "internalType": "address",
          "name": "to",
          "type": "address"
        },
        {
          "internalType": "uint256",
          "name": "tokenId",
          "type": "uint256"
        }
      ],
      "name": "approve",
      "outputs": [],
      "stateMutability": "nonpayable",
      "type": "function"
    },
    {
      "inputs": [
        {
          "internalType": "address",
          "name": "owner",
          "type": "address"
        }
      ],
      "name": "balanceOf",
      "outputs": [
        {
          "internalType": "uint256",
          "name": "",
          "type": "uint256"
        }
      ],
      "stateMutability": "view",
      "type": "function"
    },
    {
      "inputs": [
        {
          "internalType": "uint256",
          "name": "tokenId",
          "type": "uint256"
        }
      ],
      "name": "getApproved",
      "outputs": [
        {
          "internalType": "address",
          "name": "",
          "type": "address"
        }
      ],
      "stateMutability": "view",
      "type": "function"
    },
    {
      "inputs": [
        {
          "internalType": "address",
          "name": "owner",
          "type": "address"
        },
        {
          "internalType": "address",
          "name": "operator",
          "type": "address"
        }
      ],
      "name": "isApprovedForAll",
      "outputs": [
        {
          "internalType": "bool",
          "name": "",
          "type": "bool"
        }
      ],
      "stateMutability": "view",
      "type": "function"
    },
    {
      "inputs": [
        {
          "internalType": "string",
          "name": "image",
          "type": "string"
        },
        {
          "internalType": "string",
          "name": "title",
          "type": "string"
        },
        {
          "internalType": "string",
          "name": "ingredients",
          "type": "string"
        },
        {
          "internalType": "string",
          "name": "directions",
          "type": "string"
        }
      ],
      "name": "makeARecipeNFT",
      "outputs": [],
      "stateMutability": "nonpayable",
      "type": "function"
    },
    {
      "inputs": [],
      "name": "name",
      "outputs": [
        {
          "internalType": "string",
          "name": "",
          "type": "string"
        }
      ],
      "stateMutability": "view",
      "type": "function"
    },
    {
      "inputs": [
        {
          "internalType": "uint256",
          "name": "tokenId",
          "type": "uint256"
        }
      ],
      "name": "ownerOf",
      "outputs": [
        {
          "internalType": "address",
          "name": "",
          "type": "address"
        }
      ],
      "stateMutability": "view",
      "type": "function"
    },
    {
      "inputs": [
        {
          "internalType": "uint256",
          "name": "tokenId",
          "type": "uint256"
        }
      ],
      "name": "pickRandomFirstSnack",
      "outputs": [
        {
          "internalType": "string",
          "name": "",
          "type": "string"
        }
      ],
      "stateMutability": "view",
      "type": "function"
    },
    {
      "inputs": [
        {
          "internalType": "uint256",
          "name": "tokenId",
          "type": "uint256"
        }
      ],
      "name": "pickRandomSecondSnack",
      "outputs": [
        {
          "internalType": "string",
          "name": "",
          "type": "string"
        }
      ],
      "stateMutability": "view",
      "type": "function"
    },
    {
      "inputs": [
        {
          "internalType": "uint256",
          "name": "tokenId",
          "type": "uint256"
        }
      ],
      "name": "pickRandomThirdSnack",
      "outputs": [
        {
          "internalType": "string",
          "name": "",
          "type": "string"
        }
      ],
      "stateMutability": "view",
      "type": "function"
    },
    {
      "inputs": [
        {
          "internalType": "address",
          "name": "from",
          "type": "address"
        },
        {
          "internalType": "address",
          "name": "to",
          "type": "address"
        },
        {
          "internalType": "uint256",
          "name": "tokenId",
          "type": "uint256"
        }
      ],
      "name": "safeTransferFrom",
      "outputs": [],
      "stateMutability": "nonpayable",
      "type": "function"
    },
    {
      "inputs": [
        {
          "internalType": "address",
          "name": "from",
          "type": "address"
        },
        {
          "internalType": "address",
          "name": "to",
          "type": "address"
        },
        {
          "internalType": "uint256",
          "name": "tokenId",
          "type": "uint256"
        },
        {
          "internalType": "bytes",
          "name": "_data",
          "type": "bytes"
        }
      ],
      "name": "safeTransferFrom",
      "outputs": [],
      "stateMutability": "nonpayable",
      "type": "function"
    },
    {
      "inputs": [
        {
          "internalType": "address",
          "name": "operator",
          "type": "address"
        },
        {
          "internalType": "bool",
          "name": "approved",
          "type": "bool"
        }
      ],
      "name": "setApprovalForAll",
      "outputs": [],
      "stateMutability": "nonpayable",
      "type": "function"
    },
    {
      "inputs": [
        {
          "internalType": "bytes4",
          "name": "interfaceId",
          "type": "bytes4"
        }
      ],
      "name": "supportsInterface",
      "outputs": [
        {
          "internalType": "bool",
          "name": "",
          "type": "bool"
        }
      ],
      "stateMutability": "view",
      "type": "function"
    },
    {
      "inputs": [],
      "name": "symbol",
      "outputs": [
        {
          "internalType": "string",
          "name": "",
          "type": "string"
        }
      ],
      "stateMutability": "view",
      "type": "function"
    },
    {
      "inputs": [
        {
          "internalType": "uint256",
          "name": "tokenId",
          "type": "uint256"
        }
      ],
      "name": "tokenURI",
      "outputs": [
        {
          "internalType": "string",
          "name": "",
          "type": "string"
        }
      ],
      "stateMutability": "view",
      "type": "function"
    },
    {
      "inputs": [
        {
          "internalType": "address",
          "name": "from",
          "type": "address"
        },
        {
          "internalType": "address",
          "name": "to",
          "type": "address"
        },
        {
          "internalType": "uint256",
          "name": "tokenId",
          "type": "uint256"
        }
      ],
      "name": "transferFrom",
      "outputs": [],
      "stateMutability": "nonpayable",
      "type": "function"
    }
  ],
  "bytecode": "0x60806040526040518061020001604052806040518060400160405280600481526020017ff09fa59f0000000000000000000000000000000000000000000000000000000081525081526020016040518060400160405280600481526020017ff09fa7880000000000000000000000000000000000000000000000000000000081525081526020016040518060400160405280600481526020017ff09f8db10000000000000000000000000000000000000000000000000000000081525081526020016040518060400160405280600481526020017ff09fa5a80000000000000000000000000000000000000000000000000000000081525081526020016040518060400160405280600481526020017ff09fa5af0000000000000000000000000000000000000000000000000000000081525081526020016040518060400160405280600481526020017ff09fa7870000000000000000000000000000000000000000000000000000000081525081526020016040518060400160405280600481526020017ff09f8d870000000000000000000000000000000000000000000000000000000081525081526020016040518060400160405280600481526020017ff09f8d890000000000000000000000000000000000000000000000000000000081525081526020016040518060400160405280600481526020017ff09f8d9c0000000000000000000000000000000000000000000000000000000081525081526020016040518060400160405280600481526020017ff09f8d920000000000000000000000000000000000000000000000000000000081525081526020016040518060400160405280600481526020017ff09fa5930000000000000000000000000000000000000000000000000000000081525081526020016040518060400160405280600481526020017ff09fa5910000000000000000000000000000000000000000000000000000000081525081526020016040518060400160405280600481526020017ff09f8cbd0000000000000000000000000000000000000000000000000000000081525081526020016040518060400160405280600481526020017ff09fa5950000000000000000000000000000000000000000000000000000000081525081526020016040518060400160405280600481526020017ff09f8d8d0000000000000000000000000000000000000000000000000000000081525081526020016040518060400160405280600481526020017ff09f8d99000000000000000000000000000000000000000000000000000000008152508152506008906010620003d092919062000d36565b506040518061020001604052806040518060400160405280600481526020017ff09f8d860000000000000000000000000000000000000000000000000000000081525081526020016040518060400160405280600481526020017ff09f8db30000000000000000000000000000000000000000000000000000000081525081526020016040518060400160405280600481526020017ff09fab950000000000000000000000000000000000000000000000000000000081525081526020016040518060400160405280600481526020017ff09fa5900000000000000000000000000000000000000000000000000000000081525081526020016040518060400160405280600481526020017ff09fa5960000000000000000000000000000000000000000000000000000000081525081526020016040518060400160405280600481526020017ff09f8d840000000000000000000000000000000000000000000000000000000081525081526020016040518060400160405280600481526020017ff09fa5ad0000000000000000000000000000000000000000000000000000000081525081526020016040518060400160405280600481526020017ff09fa59d0000000000000000000000000000000000000000000000000000000081525081526020016040518060400160405280600781526020017ff09f8cb6efb88f0000000000000000000000000000000000000000000000000081525081526020016040518060400160405280600481526020017ff09f8e820000000000000000000000000000000000000000000000000000000081525081526020016040518060400160405280600481526020017ff09f8d940000000000000000000000000000000000000000000000000000000081525081526020016040518060400160405280600481526020017ff09f8d950000000000000000000000000000000000000000000000000000000081525081526020016040518060400160405280600481526020017ff09f8da30000000000000000000000000000000000000000000000000000000081525081526020016040518060400160405280600481526020017ff09fa5a00000000000000000000000000000000000000000000000000000000081525081526020016040518060400160405280600481526020017ff09fa7810000000000000000000000000000000000000000000000000000000081525081526020016040518060400160405280600481526020017ff09fa5ae0000000000000000000000000000000000000000000000000000000081525081525060099060106200079d92919062000d36565b506040518061020001604052806040518060400160405280600481526020017ff09f8cae0000000000000000000000000000000000000000000000000000000081525081526020016040518060400160405280600481526020017ff09f8da40000000000000000000000000000000000000000000000000000000081525081526020016040518060400160405280600481526020017ff09f8d960000000000000000000000000000000000000000000000000000000081525081526020016040518060400160405280600481526020017ff09fab940000000000000000000000000000000000000000000000000000000081525081526020016040518060400160405280600481526020017ff09fa5a50000000000000000000000000000000000000000000000000000000081525081526020016040518060400160405280600481526020017ff09fa5a60000000000000000000000000000000000000000000000000000000081525081526020016040518060400160405280600481526020017ff09f8d8a0000000000000000000000000000000000000000000000000000000081525081526020016040518060400160405280600481526020017ff09f8caf0000000000000000000000000000000000000000000000000000000081525081526020016040518060400160405280600481526020017ff09f8dba0000000000000000000000000000000000000000000000000000000081525081526020016040518060400160405280600481526020017ff09f8dab0000000000000000000000000000000000000000000000000000000081525081526020016040518060400160405280600481526020017ff09f8daa0000000000000000000000000000000000000000000000000000000081525081526020016040518060400160405280600481526020017ff09f8da90000000000000000000000000000000000000000000000000000000081525081526020016040518060400160405280600481526020017ff09f8da10000000000000000000000000000000000000000000000000000000081525081526020016040518060400160405280600481526020017ff09f8da60000000000000000000000000000000000000000000000000000000081525081526020016040518060400160405280600481526020017ff09fa6aa0000000000000000000000000000000000000000000000000000000081525081526020016040518060400160405280600481526020017ff09fa5a700000000000000000000000000000000000000000000000000000000815250815250600a90601062000b6a92919062000d36565b5034801562000b7857600080fd5b506040518060400160405280600981526020017f7265636970654e465400000000000000000000000000000000000000000000008152506040518060400160405280600481526020017f534e415800000000000000000000000000000000000000000000000000000000815250816000908051906020019062000bfd92919062000d9d565b50806001908051906020019062000c1692919062000d9d565b50505062000c646040518060400160405280601881526020017f54686973206973206d79204e465420636f6e747261637421000000000000000081525062000c6a60201b620011221760201c565b62000fe8565b62000d0a8160405160240162000c81919062000efc565b6040516020818303038152906040527f41304fac000000000000000000000000000000000000000000000000000000007bffffffffffffffffffffffffffffffffffffffffffffffffffffffff19166020820180517bffffffffffffffffffffffffffffffffffffffffffffffffffffffff838183161783525050505062000d0d60201b60201c565b50565b60008151905060006a636f6e736f6c652e6c6f679050602083016000808483855afa5050505050565b82805482825590600052602060002090810192821562000d8a579160200282015b8281111562000d8957825182908051906020019062000d7892919062000d9d565b509160200191906001019062000d57565b5b50905062000d99919062000e2e565b5090565b82805462000dab9062000f72565b90600052602060002090601f01602090048101928262000dcf576000855562000e1b565b82601f1062000dea57805160ff191683800117855562000e1b565b8280016001018555821562000e1b579182015b8281111562000e1a57825182559160200191906001019062000dfd565b5b50905062000e2a919062000e56565b5090565b5b8082111562000e52576000818162000e48919062000e75565b5060010162000e2f565b5090565b5b8082111562000e7157600081600090555060010162000e57565b5090565b50805462000e839062000f72565b6000825580601f1062000e97575062000eb8565b601f01602090049060005260206000209081019062000eb7919062000e56565b5b50565b600062000ec88262000f20565b62000ed4818562000f2b565b935062000ee681856020860162000f3c565b62000ef18162000fd7565b840191505092915050565b6000602082019050818103600083015262000f18818462000ebb565b905092915050565b600081519050919050565b600082825260208201905092915050565b60005b8381101562000f5c57808201518184015260208101905062000f3f565b8381111562000f6c576000848401525b50505050565b6000600282049050600182168062000f8b57607f821691505b6020821081141562000fa25762000fa162000fa8565b5b50919050565b7f4e487b7100000000000000000000000000000000000000000000000000000000600052602260045260246000fd5b6000601f19601f8301169050919050565b613b9f8062000ff86000396000f3fe608060405234801561001057600080fd5b506004361061010b5760003560e01c806370a08231116100a2578063b88d4fde11610071578063b88d4fde146102dc578063c87b56dd146102f8578063e985e9c514610328578063f72d50f014610358578063f84b0fff146103745761010b565b806370a0823114610242578063713d074d1461027257806395d89b41146102a2578063a22cb465146102c05761010b565b80630fae80fa116100de5780630fae80fa146101aa57806323b872dd146101da57806342842e0e146101f65780636352211e146102125761010b565b806301ffc9a71461011057806306fdde0314610140578063081812fc1461015e578063095ea7b31461018e575b600080fd5b61012a6004803603810190610125919061258a565b6103a4565b60405161013791906133da565b60405180910390f35b610148610486565b60405161015591906133f5565b60405180910390f35b6101786004803603810190610173919061269f565b610518565b604051610185919061334a565b60405180910390f35b6101a860048036038101906101a3919061254e565b61059d565b005b6101c460048036038101906101bf919061269f565b6106b5565b6040516101d191906133f5565b60405180910390f35b6101f460048036038101906101ef9190612448565b6107d3565b005b610210600480360381019061020b9190612448565b610833565b005b61022c6004803603810190610227919061269f565b610853565b604051610239919061334a565b60405180910390f35b61025c600480360381019061025791906123e3565b610905565b6040516102699190613675565b60405180910390f35b61028c6004803603810190610287919061269f565b6109bd565b60405161029991906133f5565b60405180910390f35b6102aa610adb565b6040516102b791906133f5565b60405180910390f35b6102da60048036038101906102d59190612512565b610b6d565b005b6102f660048036038101906102f19190612497565b610b83565b005b610312600480360381019061030d919061269f565b610be5565b60405161031f91906133f5565b60405180910390f35b610342600480360381019061033d919061240c565b610d37565b60405161034f91906133da565b60405180910390f35b610372600480360381019061036d91906125dc565b610dcb565b005b61038e6004803603810190610389919061269f565b611004565b60405161039b91906133f5565b60405180910390f35b60007f80ac58cd000000000000000000000000000000000000000000000000000000007bffffffffffffffffffffffffffffffffffffffffffffffffffffffff1916827bffffffffffffffffffffffffffffffffffffffffffffffffffffffff1916148061046f57507f5b5e139f000000000000000000000000000000000000000000000000000000007bffffffffffffffffffffffffffffffffffffffffffffffffffffffff1916827bffffffffffffffffffffffffffffffffffffffffffffffffffffffff1916145b8061047f575061047e826111bb565b5b9050919050565b6060600080546104959061392f565b80601f01602080910402602001604051908101604052809291908181526020018280546104c19061392f565b801561050e5780601f106104e35761010080835404028352916020019161050e565b820191906000526020600020905b8154815290600101906020018083116104f157829003601f168201915b5050505050905090565b600061052382611225565b610562576040517f08c379a0000000000000000000000000000000000000000000000000000000008152600401610559906135d5565b60405180910390fd5b6004600083815260200190815260200160002060009054906101000a900473ffffffffffffffffffffffffffffffffffffffff169050919050565b60006105a882610853565b90508073ffffffffffffffffffffffffffffffffffffffff168373ffffffffffffffffffffffffffffffffffffffff161415610619576040517f08c379a000000000000000000000000000000000000000000000000000000000815260040161061090613635565b60405180910390fd5b8073ffffffffffffffffffffffffffffffffffffffff16610638611291565b73ffffffffffffffffffffffffffffffffffffffff161480610667575061066681610661611291565b610d37565b5b6106a6576040517f08c379a000000000000000000000000000000000000000000000000000000000815260040161069d90613515565b60405180910390fd5b6106b08383611299565b505050565b606060006106e96106c584611352565b6040516020016106d5919061321d565b6040516020818303038152906040526114ff565b9050600880549050816106fc91906139aa565b905060088181548110610738577f4e487b7100000000000000000000000000000000000000000000000000000000600052603260045260246000fd5b90600052602060002001805461074d9061392f565b80601f01602080910402602001604051908101604052809291908181526020018280546107799061392f565b80156107c65780601f1061079b576101008083540402835291602001916107c6565b820191906000526020600020905b8154815290600101906020018083116107a957829003601f168201915b5050505050915050919050565b6107e46107de611291565b82611532565b610823576040517f08c379a000000000000000000000000000000000000000000000000000000000815260040161081a90613655565b60405180910390fd5b61082e838383611610565b505050565b61084e83838360405180602001604052806000815250610b83565b505050565b6000806002600084815260200190815260200160002060009054906101000a900473ffffffffffffffffffffffffffffffffffffffff169050600073ffffffffffffffffffffffffffffffffffffffff168173ffffffffffffffffffffffffffffffffffffffff1614156108fc576040517f08c379a00000000000000000000000000000000000000000000000000000000081526004016108f390613555565b60405180910390fd5b80915050919050565b60008073ffffffffffffffffffffffffffffffffffffffff168273ffffffffffffffffffffffffffffffffffffffff161415610976576040517f08c379a000000000000000000000000000000000000000000000000000000000815260040161096d90613535565b60405180910390fd5b600360008373ffffffffffffffffffffffffffffffffffffffff1673ffffffffffffffffffffffffffffffffffffffff168152602001908152602001600020549050919050565b606060006109f16109cd84611352565b6040516020016109dd919061323f565b6040516020818303038152906040526114ff565b905060098054905081610a0491906139aa565b905060098181548110610a40577f4e487b7100000000000000000000000000000000000000000000000000000000600052603260045260246000fd5b906000526020600020018054610a559061392f565b80601f0160208091040260200160405190810160405280929190818152602001828054610a819061392f565b8015610ace5780601f10610aa357610100808354040283529160200191610ace565b820191906000526020600020905b815481529060010190602001808311610ab157829003601f168201915b5050505050915050919050565b606060018054610aea9061392f565b80601f0160208091040260200160405190810160405280929190818152602001828054610b169061392f565b8015610b635780601f10610b3857610100808354040283529160200191610b63565b820191906000526020600020905b815481529060010190602001808311610b4657829003601f168201915b5050505050905090565b610b7f610b78611291565b838361186c565b5050565b610b94610b8e611291565b83611532565b610bd3576040517f08c379a0000000000000000000000000000000000000000000000000000000008152600401610bca90613655565b60405180910390fd5b610bdf848484846119d9565b50505050565b6060610bf082611225565b610c2f576040517f08c379a0000000000000000000000000000000000000000000000000000000008152600401610c26906135b5565b60405180910390fd5b6000600660008481526020019081526020016000208054610c4f9061392f565b80601f0160208091040260200160405190810160405280929190818152602001828054610c7b9061392f565b8015610cc85780601f10610c9d57610100808354040283529160200191610cc8565b820191906000526020600020905b815481529060010190602001808311610cab57829003601f168201915b505050505090506000610cd9611a35565b9050600081511415610cef578192505050610d32565b600082511115610d24578082604051602001610d0c929190613169565b60405160208183030381529060405292505050610d32565b610d2d84611a4c565b925050505b919050565b6000600560008473ffffffffffffffffffffffffffffffffffffffff1673ffffffffffffffffffffffffffffffffffffffff16815260200190815260200160002060008373ffffffffffffffffffffffffffffffffffffffff1673ffffffffffffffffffffffffffffffffffffffff16815260200190815260200160002060009054906101000a900460ff16905092915050565b6000610dd76007611af3565b905060328110610e1c576040517f08c379a0000000000000000000000000000000000000000000000000000000008152600401610e1390613495565b60405180910390fd5b6000610e27826106b5565b90506000610e34836109bd565b90506000610e4184611004565b90506000838383604051602001610e5a9392919061318d565b6040516020818303038152906040529050600089858585604051602001610e8494939291906131be565b60405160208183030381529060405290506000610ed18a8a8a8d87610ea888611b01565b604051602001610ebd96959493929190613261565b604051602081830303815290604052611b01565b9050600081604051602001610ee69190613306565b6040516020818303038152906040529050610f356040518060400160405280601581526020017f0a2d2d2d2d2d2d2d2d2d2d2d2d2d2d2d2d2d2d2d2d0000000000000000000000815250611122565b610f3e81611122565b610f7c6040518060400160405280601581526020017f2d2d2d2d2d2d2d2d2d2d2d2d2d2d2d2d2d2d2d2d0a0000000000000000000000815250611122565b610f863389611cbf565b610f908882611cdd565b610f9a6007611d51565b610fbd604051806060016040528060258152602001613b05602591398933611d67565b7f90e7a399c119b6fb01b0c5a980845dbd83c7c4a4bccad389993adc868f2092e03389604051610fee9291906133b1565b60405180910390a1505050505050505050505050565b6060600061103861101484611352565b6040516020016110249190613328565b6040516020818303038152906040526114ff565b9050600a805490508161104b91906139aa565b9050600a8181548110611087577f4e487b7100000000000000000000000000000000000000000000000000000000600052603260045260246000fd5b90600052602060002001805461109c9061392f565b80601f01602080910402602001604051908101604052809291908181526020018280546110c89061392f565b80156111155780601f106110ea57610100808354040283529160200191611115565b820191906000526020600020905b8154815290600101906020018083116110f857829003601f168201915b5050505050915050919050565b6111b88160405160240161113691906133f5565b6040516020818303038152906040527f41304fac000000000000000000000000000000000000000000000000000000007bffffffffffffffffffffffffffffffffffffffffffffffffffffffff19166020820180517bffffffffffffffffffffffffffffffffffffffffffffffffffffffff8381831617835250505050611e06565b50565b60007f01ffc9a7000000000000000000000000000000000000000000000000000000007bffffffffffffffffffffffffffffffffffffffffffffffffffffffff1916827bffffffffffffffffffffffffffffffffffffffffffffffffffffffff1916149050919050565b60008073ffffffffffffffffffffffffffffffffffffffff166002600084815260200190815260200160002060009054906101000a900473ffffffffffffffffffffffffffffffffffffffff1673ffffffffffffffffffffffffffffffffffffffff1614159050919050565b600033905090565b816004600083815260200190815260200160002060006101000a81548173ffffffffffffffffffffffffffffffffffffffff021916908373ffffffffffffffffffffffffffffffffffffffff160217905550808273ffffffffffffffffffffffffffffffffffffffff1661130c83610853565b73ffffffffffffffffffffffffffffffffffffffff167f8c5be1e5ebec7d5bd14f71427d1e84f3dd0314c0f7b2291e5b200ac8c7c3b92560405160405180910390a45050565b6060600082141561139a576040518060400160405280600181526020017f300000000000000000000000000000000000000000000000000000000000000081525090506114fa565b600082905060005b600082146113cc5780806113b590613961565b915050600a826113c591906137ba565b91506113a2565b60008167ffffffffffffffff81111561140e577f4e487b7100000000000000000000000000000000000000000000000000000000600052604160045260246000fd5b6040519080825280601f01601f1916602001820160405280156114405781602001600182028036833780820191505090505b5090505b600085146114f3576001826114599190613845565b9150600a8561146891906139aa565b60306114749190613764565b60f81b8183815181106114b0577f4e487b7100000000000000000000000000000000000000000000000000000000600052603260045260246000fd5b60200101907effffffffffffffffffffffffffffffffffffffffffffffffffffffffffffff1916908160001a905350600a856114ec91906137ba565b9450611444565b8093505050505b919050565b6000816040516020016115129190613152565b6040516020818303038152906040528051906020012060001c9050919050565b600061153d82611225565b61157c576040517f08c379a0000000000000000000000000000000000000000000000000000000008152600401611573906134f5565b60405180910390fd5b600061158783610853565b90508073ffffffffffffffffffffffffffffffffffffffff168473ffffffffffffffffffffffffffffffffffffffff1614806115f657508373ffffffffffffffffffffffffffffffffffffffff166115de84610518565b73ffffffffffffffffffffffffffffffffffffffff16145b8061160757506116068185610d37565b5b91505092915050565b8273ffffffffffffffffffffffffffffffffffffffff1661163082610853565b73ffffffffffffffffffffffffffffffffffffffff1614611686576040517f08c379a000000000000000000000000000000000000000000000000000000000815260040161167d906135f5565b60405180910390fd5b600073ffffffffffffffffffffffffffffffffffffffff168273ffffffffffffffffffffffffffffffffffffffff1614156116f6576040517f08c379a00000000000000000000000000000000000000000000000000000000081526004016116ed906134b5565b60405180910390fd5b611701838383611e2f565b61170c600082611299565b6001600360008573ffffffffffffffffffffffffffffffffffffffff1673ffffffffffffffffffffffffffffffffffffffff168152602001908152602001600020600082825461175c9190613845565b925050819055506001600360008473ffffffffffffffffffffffffffffffffffffffff1673ffffffffffffffffffffffffffffffffffffffff16815260200190815260200160002060008282546117b39190613764565b92505081905550816002600083815260200190815260200160002060006101000a81548173ffffffffffffffffffffffffffffffffffffffff021916908373ffffffffffffffffffffffffffffffffffffffff160217905550808273ffffffffffffffffffffffffffffffffffffffff168473ffffffffffffffffffffffffffffffffffffffff167fddf252ad1be2c89b69c2b068fc378daa952ba7f163c4a11628f55a4df523b3ef60405160405180910390a4505050565b8173ffffffffffffffffffffffffffffffffffffffff168373ffffffffffffffffffffffffffffffffffffffff1614156118db576040517f08c379a00000000000000000000000000000000000000000000000000000000081526004016118d2906134d5565b60405180910390fd5b80600560008573ffffffffffffffffffffffffffffffffffffffff1673ffffffffffffffffffffffffffffffffffffffff16815260200190815260200160002060008473ffffffffffffffffffffffffffffffffffffffff1673ffffffffffffffffffffffffffffffffffffffff16815260200190815260200160002060006101000a81548160ff0219169083151502179055508173ffffffffffffffffffffffffffffffffffffffff168373ffffffffffffffffffffffffffffffffffffffff167f17307eab39ab6107e8899845ad3d59bd9653f200f220920489ca2b5937696c31836040516119cc91906133da565b60405180910390a3505050565b6119e4848484611610565b6119f084848484611e34565b611a2f576040517f08c379a0000000000000000000000000000000000000000000000000000000008152600401611a2690613455565b60405180910390fd5b50505050565b606060405180602001604052806000815250905090565b6060611a5782611225565b611a96576040517f08c379a0000000000000000000000000000000000000000000000000000000008152600401611a8d90613615565b60405180910390fd5b6000611aa0611a35565b90506000815111611ac05760405180602001604052806000815250611aeb565b80611aca84611352565b604051602001611adb929190613169565b6040516020818303038152906040525b915050919050565b600081600001549050919050565b60606000825190506000811415611b2a5760405180602001604052806000815250915050611cba565b60006003600283611b3b9190613764565b611b4591906137ba565b6004611b5191906137eb565b90506000602082611b629190613764565b67ffffffffffffffff811115611ba1577f4e487b7100000000000000000000000000000000000000000000000000000000600052604160045260246000fd5b6040519080825280601f01601f191660200182016040528015611bd35781602001600182028036833780820191505090505b5090506000604051806060016040528060408152602001613b2a604091399050600181016020830160005b86811015611c775760038101905062ffffff818a015116603f8160121c168401518060081b905060ff603f83600c1c1686015116810190508060081b905060ff603f8360061c1686015116810190508060081b905060ff603f831686015116810190508060e01b90508084526004840193505050611bfe565b506003860660018114611c915760028114611ca157611cac565b613d3d60f01b6002830352611cac565b603d60f81b60018303525b508484525050819450505050505b919050565b611cd9828260405180602001604052806000815250611fcb565b5050565b611ce682611225565b611d25576040517f08c379a0000000000000000000000000000000000000000000000000000000008152600401611d1c90613575565b60405180910390fd5b80600660008481526020019081526020016000209080519060200190611d4c929190612207565b505050565b6001816000016000828254019250508190555050565b611e01838383604051602401611d7f93929190613417565b6040516020818303038152906040527fe3849f79000000000000000000000000000000000000000000000000000000007bffffffffffffffffffffffffffffffffffffffffffffffffffffffff19166020820180517bffffffffffffffffffffffffffffffffffffffffffffffffffffffff8381831617835250505050611e06565b505050565b60008151905060006a636f6e736f6c652e6c6f679050602083016000808483855afa5050505050565b505050565b6000611e558473ffffffffffffffffffffffffffffffffffffffff16612026565b15611fbe578373ffffffffffffffffffffffffffffffffffffffff1663150b7a02611e7e611291565b8786866040518563ffffffff1660e01b8152600401611ea09493929190613365565b602060405180830381600087803b158015611eba57600080fd5b505af1925050508015611eeb57506040513d601f19601f82011682018060405250810190611ee891906125b3565b60015b611f6e573d8060008114611f1b576040519150601f19603f3d011682016040523d82523d6000602084013e611f20565b606091505b50600081511415611f66576040517f08c379a0000000000000000000000000000000000000000000000000000000008152600401611f5d90613455565b60405180910390fd5b805181602001fd5b63150b7a0260e01b7bffffffffffffffffffffffffffffffffffffffffffffffffffffffff1916817bffffffffffffffffffffffffffffffffffffffffffffffffffffffff191614915050611fc3565b600190505b949350505050565b611fd58383612039565b611fe26000848484611e34565b612021576040517f08c379a000000000000000000000000000000000000000000000000000000000815260040161201890613455565b60405180910390fd5b505050565b600080823b905060008111915050919050565b600073ffffffffffffffffffffffffffffffffffffffff168273ffffffffffffffffffffffffffffffffffffffff1614156120a9576040517f08c379a00000000000000000000000000000000000000000000000000000000081526004016120a090613595565b60405180910390fd5b6120b281611225565b156120f2576040517f08c379a00000000000000000000000000000000000000000000000000000000081526004016120e990613475565b60405180910390fd5b6120fe60008383611e2f565b6001600360008473ffffffffffffffffffffffffffffffffffffffff1673ffffffffffffffffffffffffffffffffffffffff168152602001908152602001600020600082825461214e9190613764565b92505081905550816002600083815260200190815260200160002060006101000a81548173ffffffffffffffffffffffffffffffffffffffff021916908373ffffffffffffffffffffffffffffffffffffffff160217905550808273ffffffffffffffffffffffffffffffffffffffff16600073ffffffffffffffffffffffffffffffffffffffff167fddf252ad1be2c89b69c2b068fc378daa952ba7f163c4a11628f55a4df523b3ef60405160405180910390a45050565b8280546122139061392f565b90600052602060002090601f016020900481019282612235576000855561227c565b82601f1061224e57805160ff191683800117855561227c565b8280016001018555821561227c579182015b8281111561227b578251825591602001919060010190612260565b5b509050612289919061228d565b5090565b5b808211156122a657600081600090555060010161228e565b5090565b60006122bd6122b8846136c1565b613690565b9050828152602081018484840111156122d557600080fd5b6122e08482856138ed565b509392505050565b60006122fb6122f6846136f1565b613690565b90508281526020810184848401111561231357600080fd5b61231e8482856138ed565b509392505050565b60008135905061233581613aa8565b92915050565b60008135905061234a81613abf565b92915050565b60008135905061235f81613ad6565b92915050565b60008151905061237481613ad6565b92915050565b600082601f83011261238b57600080fd5b813561239b8482602086016122aa565b91505092915050565b600082601f8301126123b557600080fd5b81356123c58482602086016122e8565b91505092915050565b6000813590506123dd81613aed565b92915050565b6000602082840312156123f557600080fd5b600061240384828501612326565b91505092915050565b6000806040838503121561241f57600080fd5b600061242d85828601612326565b925050602061243e85828601612326565b9150509250929050565b60008060006060848603121561245d57600080fd5b600061246b86828701612326565b935050602061247c86828701612326565b925050604061248d868287016123ce565b9150509250925092565b600080600080608085870312156124ad57600080fd5b60006124bb87828801612326565b94505060206124cc87828801612326565b93505060406124dd878288016123ce565b925050606085013567ffffffffffffffff8111156124fa57600080fd5b6125068782880161237a565b91505092959194509250565b6000806040838503121561252557600080fd5b600061253385828601612326565b92505060206125448582860161233b565b9150509250929050565b6000806040838503121561256157600080fd5b600061256f85828601612326565b9250506020612580858286016123ce565b9150509250929050565b60006020828403121561259c57600080fd5b60006125aa84828501612350565b91505092915050565b6000602082840312156125c557600080fd5b60006125d384828501612365565b91505092915050565b600080600080608085870312156125f257600080fd5b600085013567ffffffffffffffff81111561260c57600080fd5b612618878288016123a4565b945050602085013567ffffffffffffffff81111561263557600080fd5b612641878288016123a4565b935050604085013567ffffffffffffffff81111561265e57600080fd5b61266a878288016123a4565b925050606085013567ffffffffffffffff81111561268757600080fd5b612693878288016123a4565b91505092959194509250565b6000602082840312156126b157600080fd5b60006126bf848285016123ce565b91505092915050565b6126d181613879565b82525050565b6126e08161388b565b82525050565b60006126f182613721565b6126fb8185613737565b935061270b8185602086016138fc565b61271481613a97565b840191505092915050565b600061272a8261372c565b6127348185613748565b93506127448185602086016138fc565b61274d81613a97565b840191505092915050565b60006127638261372c565b61276d8185613759565b935061277d8185602086016138fc565b80840191505092915050565b6000612796602783613759565b91507f222c20226465736372697074696f6e223a20224d617920796f7572207265636960008301527f706520666f7220000000000000000000000000000000000000000000000000006020830152602782019050919050565b60006127fc601383613759565b91507f206c697665206f6e20666f7265766572202d20000000000000000000000000006000830152601382019050919050565b600061283c601283613759565b91507f222c2022646972656374696f6e73223a202200000000000000000000000000006000830152601282019050919050565b600061287c603283613748565b91507f4552433732313a207472616e7366657220746f206e6f6e20455243373231526560008301527f63656976657220696d706c656d656e74657200000000000000000000000000006020830152604082019050919050565b60006128e2601383613759565b91507f222c2022696e6772656469656e7473223a2022000000000000000000000000006000830152601382019050919050565b6000612922601c83613748565b91507f4552433732313a20746f6b656e20616c7265616479206d696e746564000000006000830152602082019050919050565b6000612962601983613748565b91507f5468697320666163746f72792068617320657870697265642e000000000000006000830152602082019050919050565b60006129a2602483613748565b91507f4552433732313a207472616e7366657220746f20746865207a65726f2061646460008301527f72657373000000000000000000000000000000000000000000000000000000006020830152604082019050919050565b6000612a08601983613748565b91507f4552433732313a20617070726f766520746f2063616c6c6572000000000000006000830152602082019050919050565b6000612a48600b83613759565b91507f46495253545f534e41434b0000000000000000000000000000000000000000006000830152600b82019050919050565b6000612a88600c83613759565b91507f5345434f4e445f534e41434b00000000000000000000000000000000000000006000830152600c82019050919050565b6000612ac8602c83613748565b91507f4552433732313a206f70657261746f7220717565727920666f72206e6f6e657860008301527f697374656e7420746f6b656e00000000000000000000000000000000000000006020830152604082019050919050565b6000612b2e600183613759565b91507f20000000000000000000000000000000000000000000000000000000000000006000830152600182019050919050565b6000612b6e603883613748565b91507f4552433732313a20617070726f76652063616c6c6572206973206e6f74206f7760008301527f6e6572206e6f7220617070726f76656420666f7220616c6c00000000000000006020830152604082019050919050565b6000612bd4602a83613748565b91507f4552433732313a2062616c616e636520717565727920666f7220746865207a6560008301527f726f2061646472657373000000000000000000000000000000000000000000006020830152604082019050919050565b6000612c3a602983613748565b91507f4552433732313a206f776e657220717565727920666f72206e6f6e657869737460008301527f656e7420746f6b656e00000000000000000000000000000000000000000000006020830152604082019050919050565b6000612ca0602e83613748565b91507f45524337323155524953746f726167653a2055524920736574206f66206e6f6e60008301527f6578697374656e7420746f6b656e0000000000000000000000000000000000006020830152604082019050919050565b6000612d06600283613759565b91507f227d0000000000000000000000000000000000000000000000000000000000006000830152600282019050919050565b6000612d46602083613748565b91507f4552433732313a206d696e7420746f20746865207a65726f20616464726573736000830152602082019050919050565b6000612d86603183613748565b91507f45524337323155524953746f726167653a2055524920717565727920666f722060008301527f6e6f6e6578697374656e7420746f6b656e0000000000000000000000000000006020830152604082019050919050565b6000612dec602c83613748565b91507f4552433732313a20617070726f76656420717565727920666f72206e6f6e657860008301527f697374656e7420746f6b656e00000000000000000000000000000000000000006020830152604082019050919050565b6000612e52602983613748565b91507f4552433732313a207472616e73666572206f6620746f6b656e2074686174206960008301527f73206e6f74206f776e00000000000000000000000000000000000000000000006020830152604082019050919050565b6000612eb8602f83613748565b91507f4552433732314d657461646174613a2055524920717565727920666f72206e6f60008301527f6e6578697374656e7420746f6b656e00000000000000000000000000000000006020830152604082019050919050565b6000612f1e602783613759565b91507f222c2022696d616765223a2022646174613a696d6167652f7376672b786d6c3b60008301527f6261736536342c000000000000000000000000000000000000000000000000006020830152602782019050919050565b6000612f84600a83613759565b91507f7b226e616d65223a2022000000000000000000000000000000000000000000006000830152600a82019050919050565b6000612fc4602183613748565b91507f4552433732313a20617070726f76616c20746f2063757272656e74206f776e6560008301527f72000000000000000000000000000000000000000000000000000000000000006020830152604082019050919050565b600061302a601d83613759565b91507f646174613a6170706c69636174696f6e2f6a736f6e3b6261736536342c0000006000830152601d82019050919050565b600061306a603183613748565b91507f4552433732313a207472616e736665722063616c6c6572206973206e6f74206f60008301527f776e6572206e6f7220617070726f7665640000000000000000000000000000006020830152604082019050919050565b60006130d0601583613759565b91507f3c2f747370616e3e3c2f746578743e3c2f7376673e00000000000000000000006000830152601582019050919050565b6000613110600b83613759565b91507f54484952445f534e41434b0000000000000000000000000000000000000000006000830152600b82019050919050565b61314c816138e3565b82525050565b600061315e8284612758565b915081905092915050565b60006131758285612758565b91506131818284612758565b91508190509392505050565b60006131998286612758565b91506131a58285612758565b91506131b18284612758565b9150819050949350505050565b60006131ca8287612758565b91506131d68286612758565b91506131e182612b21565b91506131ed8285612758565b91506131f882612b21565b91506132048284612758565b915061320f826130c3565b915081905095945050505050565b600061322882612a3b565b91506132348284612758565b915081905092915050565b600061324a82612a7b565b91506132568284612758565b915081905092915050565b600061326c82612f77565b91506132788289612758565b9150613283826128d5565b915061328f8288612758565b915061329a8261282f565b91506132a68287612758565b91506132b182612789565b91506132bd8286612758565b91506132c8826127ef565b91506132d48285612758565b91506132df82612f11565b91506132eb8284612758565b91506132f682612cf9565b9150819050979650505050505050565b60006133118261301d565b915061331d8284612758565b915081905092915050565b600061333382613103565b915061333f8284612758565b915081905092915050565b600060208201905061335f60008301846126c8565b92915050565b600060808201905061337a60008301876126c8565b61338760208301866126c8565b6133946040830185613143565b81810360608301526133a681846126e6565b905095945050505050565b60006040820190506133c660008301856126c8565b6133d36020830184613143565b9392505050565b60006020820190506133ef60008301846126d7565b92915050565b6000602082019050818103600083015261340f818461271f565b905092915050565b60006060820190508181036000830152613431818661271f565b90506134406020830185613143565b61344d60408301846126c8565b949350505050565b6000602082019050818103600083015261346e8161286f565b9050919050565b6000602082019050818103600083015261348e81612915565b9050919050565b600060208201905081810360008301526134ae81612955565b9050919050565b600060208201905081810360008301526134ce81612995565b9050919050565b600060208201905081810360008301526134ee816129fb565b9050919050565b6000602082019050818103600083015261350e81612abb565b9050919050565b6000602082019050818103600083015261352e81612b61565b9050919050565b6000602082019050818103600083015261354e81612bc7565b9050919050565b6000602082019050818103600083015261356e81612c2d565b9050919050565b6000602082019050818103600083015261358e81612c93565b9050919050565b600060208201905081810360008301526135ae81612d39565b9050919050565b600060208201905081810360008301526135ce81612d79565b9050919050565b600060208201905081810360008301526135ee81612ddf565b9050919050565b6000602082019050818103600083015261360e81612e45565b9050919050565b6000602082019050818103600083015261362e81612eab565b9050919050565b6000602082019050818103600083015261364e81612fb7565b9050919050565b6000602082019050818103600083015261366e8161305d565b9050919050565b600060208201905061368a6000830184613143565b92915050565b6000604051905081810181811067ffffffffffffffff821117156136b7576136b6613a68565b5b8060405250919050565b600067ffffffffffffffff8211156136dc576136db613a68565b5b601f19601f8301169050602081019050919050565b600067ffffffffffffffff82111561370c5761370b613a68565b5b601f19601f8301169050602081019050919050565b600081519050919050565b600081519050919050565b600082825260208201905092915050565b600082825260208201905092915050565b600081905092915050565b600061376f826138e3565b915061377a836138e3565b9250827fffffffffffffffffffffffffffffffffffffffffffffffffffffffffffffffff038211156137af576137ae6139db565b5b828201905092915050565b60006137c5826138e3565b91506137d0836138e3565b9250826137e0576137df613a0a565b5b828204905092915050565b60006137f6826138e3565b9150613801836138e3565b9250817fffffffffffffffffffffffffffffffffffffffffffffffffffffffffffffffff048311821515161561383a576138396139db565b5b828202905092915050565b6000613850826138e3565b915061385b836138e3565b92508282101561386e5761386d6139db565b5b828203905092915050565b6000613884826138c3565b9050919050565b60008115159050919050565b60007fffffffff0000000000000000000000000000000000000000000000000000000082169050919050565b600073ffffffffffffffffffffffffffffffffffffffff82169050919050565b6000819050919050565b82818337600083830152505050565b60005b8381101561391a5780820151818401526020810190506138ff565b83811115613929576000848401525b50505050565b6000600282049050600182168061394757607f821691505b6020821081141561395b5761395a613a39565b5b50919050565b600061396c826138e3565b91507fffffffffffffffffffffffffffffffffffffffffffffffffffffffffffffffff82141561399f5761399e6139db565b5b600182019050919050565b60006139b5826138e3565b91506139c0836138e3565b9250826139d0576139cf613a0a565b5b828206905092915050565b7f4e487b7100000000000000000000000000000000000000000000000000000000600052601160045260246000fd5b7f4e487b7100000000000000000000000000000000000000000000000000000000600052601260045260246000fd5b7f4e487b7100000000000000000000000000000000000000000000000000000000600052602260045260246000fd5b7f4e487b7100000000000000000000000000000000000000000000000000000000600052604160045260246000fd5b6000601f19601f8301169050919050565b613ab181613879565b8114613abc57600080fd5b50565b613ac88161388b565b8114613ad357600080fd5b50565b613adf81613897565b8114613aea57600080fd5b50565b613af6816138e3565b8114613b0157600080fd5b5056fe416e204e465420772f20494420257320686173206265656e206d696e74656420746f2025734142434445464748494a4b4c4d4e4f505152535455565758595a6162636465666768696a6b6c6d6e6f707172737475767778797a303132333435363738392b2fa2646970667358221220019b691a0ca4193122970741d5fa989f19f6ca1fd0838a31e3825f03424b32ca64736f6c63430008000033",
  "linkReferences": {},
  "deployedLinkReferences": {}
}