{
  "_format": "hh-sol-artifact-1",
  "contractName": "MyRecipeNFT",
  "sourceName": "contracts/MyRecipeNFT.sol",
  "abi": [
    {
      "inputs": [],
      "stateMutability": "nonpayable",
      "type": "constructor"
    },
    {
      "anonymous": false,
      "inputs": [
        {
          "indexed": true,
          "internalType": "address",
          "name": "owner",
          "type": "address"
        },
        {
          "indexed": true,
          "internalType": "address",
          "name": "approved",
          "type": "address"
        },
        {
          "indexed": true,
          "internalType": "uint256",
          "name": "tokenId",
          "type": "uint256"
        }
      ],
      "name": "Approval",
      "type": "event"
    },
    {
      "anonymous": false,
      "inputs": [
        {
          "indexed": true,
          "internalType": "address",
          "name": "owner",
          "type": "address"
        },
        {
          "indexed": true,
          "internalType": "address",
          "name": "operator",
          "type": "address"
        },
        {
          "indexed": false,
          "internalType": "bool",
          "name": "approved",
          "type": "bool"
        }
      ],
      "name": "ApprovalForAll",
      "type": "event"
    },
    {
      "anonymous": false,
      "inputs": [
        {
          "indexed": false,
          "internalType": "address",
          "name": "sender",
          "type": "address"
        },
        {
          "indexed": false,
          "internalType": "uint256",
          "name": "tokenId",
          "type": "uint256"
        }
      ],
      "name": "NewRecipeNFTMinted",
      "type": "event"
    },
    {
      "anonymous": false,
      "inputs": [
        {
          "indexed": true,
          "internalType": "address",
          "name": "from",
          "type": "address"
        },
        {
          "indexed": true,
          "internalType": "address",
          "name": "to",
          "type": "address"
        },
        {
          "indexed": true,
          "internalType": "uint256",
          "name": "tokenId",
          "type": "uint256"
        }
      ],
      "name": "Transfer",
      "type": "event"
    },
    {
      "inputs": [
        {
          "internalType": "address",
          "name": "to",
          "type": "address"
        },
        {
          "internalType": "uint256",
          "name": "tokenId",
          "type": "uint256"
        }
      ],
      "name": "approve",
      "outputs": [],
      "stateMutability": "nonpayable",
      "type": "function"
    },
    {
      "inputs": [
        {
          "internalType": "address",
          "name": "owner",
          "type": "address"
        }
      ],
      "name": "balanceOf",
      "outputs": [
        {
          "internalType": "uint256",
          "name": "",
          "type": "uint256"
        }
      ],
      "stateMutability": "view",
      "type": "function"
    },
    {
      "inputs": [
        {
          "internalType": "uint256",
          "name": "tokenId",
          "type": "uint256"
        }
      ],
      "name": "getApproved",
      "outputs": [
        {
          "internalType": "address",
          "name": "",
          "type": "address"
        }
      ],
      "stateMutability": "view",
      "type": "function"
    },
    {
      "inputs": [
        {
          "internalType": "address",
          "name": "owner",
          "type": "address"
        },
        {
          "internalType": "address",
          "name": "operator",
          "type": "address"
        }
      ],
      "name": "isApprovedForAll",
      "outputs": [
        {
          "internalType": "bool",
          "name": "",
          "type": "bool"
        }
      ],
      "stateMutability": "view",
      "type": "function"
    },
    {
      "inputs": [
        {
          "internalType": "string",
          "name": "image",
          "type": "string"
        }
      ],
      "name": "makeARecipeNFT",
      "outputs": [],
      "stateMutability": "nonpayable",
      "type": "function"
    },
    {
      "inputs": [],
      "name": "name",
      "outputs": [
        {
          "internalType": "string",
          "name": "",
          "type": "string"
        }
      ],
      "stateMutability": "view",
      "type": "function"
    },
    {
      "inputs": [
        {
          "internalType": "uint256",
          "name": "tokenId",
          "type": "uint256"
        }
      ],
      "name": "ownerOf",
      "outputs": [
        {
          "internalType": "address",
          "name": "",
          "type": "address"
        }
      ],
      "stateMutability": "view",
      "type": "function"
    },
    {
      "inputs": [
        {
          "internalType": "uint256",
          "name": "tokenId",
          "type": "uint256"
        }
      ],
      "name": "pickRandomFirstSnack",
      "outputs": [
        {
          "internalType": "string",
          "name": "",
          "type": "string"
        }
      ],
      "stateMutability": "view",
      "type": "function"
    },
    {
      "inputs": [
        {
          "internalType": "uint256",
          "name": "tokenId",
          "type": "uint256"
        }
      ],
      "name": "pickRandomSecondSnack",
      "outputs": [
        {
          "internalType": "string",
          "name": "",
          "type": "string"
        }
      ],
      "stateMutability": "view",
      "type": "function"
    },
    {
      "inputs": [
        {
          "internalType": "uint256",
          "name": "tokenId",
          "type": "uint256"
        }
      ],
      "name": "pickRandomThirdSnack",
      "outputs": [
        {
          "internalType": "string",
          "name": "",
          "type": "string"
        }
      ],
      "stateMutability": "view",
      "type": "function"
    },
    {
      "inputs": [
        {
          "internalType": "address",
          "name": "from",
          "type": "address"
        },
        {
          "internalType": "address",
          "name": "to",
          "type": "address"
        },
        {
          "internalType": "uint256",
          "name": "tokenId",
          "type": "uint256"
        }
      ],
      "name": "safeTransferFrom",
      "outputs": [],
      "stateMutability": "nonpayable",
      "type": "function"
    },
    {
      "inputs": [
        {
          "internalType": "address",
          "name": "from",
          "type": "address"
        },
        {
          "internalType": "address",
          "name": "to",
          "type": "address"
        },
        {
          "internalType": "uint256",
          "name": "tokenId",
          "type": "uint256"
        },
        {
          "internalType": "bytes",
          "name": "_data",
          "type": "bytes"
        }
      ],
      "name": "safeTransferFrom",
      "outputs": [],
      "stateMutability": "nonpayable",
      "type": "function"
    },
    {
      "inputs": [
        {
          "internalType": "address",
          "name": "operator",
          "type": "address"
        },
        {
          "internalType": "bool",
          "name": "approved",
          "type": "bool"
        }
      ],
      "name": "setApprovalForAll",
      "outputs": [],
      "stateMutability": "nonpayable",
      "type": "function"
    },
    {
      "inputs": [
        {
          "internalType": "bytes4",
          "name": "interfaceId",
          "type": "bytes4"
        }
      ],
      "name": "supportsInterface",
      "outputs": [
        {
          "internalType": "bool",
          "name": "",
          "type": "bool"
        }
      ],
      "stateMutability": "view",
      "type": "function"
    },
    {
      "inputs": [],
      "name": "symbol",
      "outputs": [
        {
          "internalType": "string",
          "name": "",
          "type": "string"
        }
      ],
      "stateMutability": "view",
      "type": "function"
    },
    {
      "inputs": [
        {
          "internalType": "uint256",
          "name": "tokenId",
          "type": "uint256"
        }
      ],
      "name": "tokenURI",
      "outputs": [
        {
          "internalType": "string",
          "name": "",
          "type": "string"
        }
      ],
      "stateMutability": "view",
      "type": "function"
    },
    {
      "inputs": [
        {
          "internalType": "address",
          "name": "from",
          "type": "address"
        },
        {
          "internalType": "address",
          "name": "to",
          "type": "address"
        },
        {
          "internalType": "uint256",
          "name": "tokenId",
          "type": "uint256"
        }
      ],
      "name": "transferFrom",
      "outputs": [],
      "stateMutability": "nonpayable",
      "type": "function"
    }
  ],
  "bytecode": "0x60806040526040518061020001604052806040518060400160405280600481526020017ff09fa59f0000000000000000000000000000000000000000000000000000000081525081526020016040518060400160405280600481526020017ff09fa7880000000000000000000000000000000000000000000000000000000081525081526020016040518060400160405280600481526020017ff09f8db10000000000000000000000000000000000000000000000000000000081525081526020016040518060400160405280600481526020017ff09fa5a80000000000000000000000000000000000000000000000000000000081525081526020016040518060400160405280600481526020017ff09fa5af0000000000000000000000000000000000000000000000000000000081525081526020016040518060400160405280600481526020017ff09fa7870000000000000000000000000000000000000000000000000000000081525081526020016040518060400160405280600481526020017ff09f8d870000000000000000000000000000000000000000000000000000000081525081526020016040518060400160405280600481526020017ff09f8d890000000000000000000000000000000000000000000000000000000081525081526020016040518060400160405280600481526020017ff09f8d9c0000000000000000000000000000000000000000000000000000000081525081526020016040518060400160405280600481526020017ff09f8d920000000000000000000000000000000000000000000000000000000081525081526020016040518060400160405280600481526020017ff09fa5930000000000000000000000000000000000000000000000000000000081525081526020016040518060400160405280600481526020017ff09fa5910000000000000000000000000000000000000000000000000000000081525081526020016040518060400160405280600481526020017ff09f8cbd0000000000000000000000000000000000000000000000000000000081525081526020016040518060400160405280600481526020017ff09fa5950000000000000000000000000000000000000000000000000000000081525081526020016040518060400160405280600481526020017ff09f8d8d0000000000000000000000000000000000000000000000000000000081525081526020016040518060400160405280600481526020017ff09f8d99000000000000000000000000000000000000000000000000000000008152508152506008906010620003d092919062000d36565b506040518061020001604052806040518060400160405280600481526020017ff09f8d860000000000000000000000000000000000000000000000000000000081525081526020016040518060400160405280600481526020017ff09f8db30000000000000000000000000000000000000000000000000000000081525081526020016040518060400160405280600481526020017ff09fab950000000000000000000000000000000000000000000000000000000081525081526020016040518060400160405280600481526020017ff09fa5900000000000000000000000000000000000000000000000000000000081525081526020016040518060400160405280600481526020017ff09fa5960000000000000000000000000000000000000000000000000000000081525081526020016040518060400160405280600481526020017ff09f8d840000000000000000000000000000000000000000000000000000000081525081526020016040518060400160405280600481526020017ff09fa5ad0000000000000000000000000000000000000000000000000000000081525081526020016040518060400160405280600481526020017ff09fa59d0000000000000000000000000000000000000000000000000000000081525081526020016040518060400160405280600781526020017ff09f8cb6efb88f0000000000000000000000000000000000000000000000000081525081526020016040518060400160405280600481526020017ff09f8e820000000000000000000000000000000000000000000000000000000081525081526020016040518060400160405280600481526020017ff09f8d940000000000000000000000000000000000000000000000000000000081525081526020016040518060400160405280600481526020017ff09f8d950000000000000000000000000000000000000000000000000000000081525081526020016040518060400160405280600481526020017ff09f8da30000000000000000000000000000000000000000000000000000000081525081526020016040518060400160405280600481526020017ff09fa5a00000000000000000000000000000000000000000000000000000000081525081526020016040518060400160405280600481526020017ff09fa7810000000000000000000000000000000000000000000000000000000081525081526020016040518060400160405280600481526020017ff09fa5ae0000000000000000000000000000000000000000000000000000000081525081525060099060106200079d92919062000d36565b506040518061020001604052806040518060400160405280600481526020017ff09f8cae0000000000000000000000000000000000000000000000000000000081525081526020016040518060400160405280600481526020017ff09f8da40000000000000000000000000000000000000000000000000000000081525081526020016040518060400160405280600481526020017ff09f8d960000000000000000000000000000000000000000000000000000000081525081526020016040518060400160405280600481526020017ff09fab940000000000000000000000000000000000000000000000000000000081525081526020016040518060400160405280600481526020017ff09fa5a50000000000000000000000000000000000000000000000000000000081525081526020016040518060400160405280600481526020017ff09fa5a60000000000000000000000000000000000000000000000000000000081525081526020016040518060400160405280600481526020017ff09f8d8a0000000000000000000000000000000000000000000000000000000081525081526020016040518060400160405280600481526020017ff09f8caf0000000000000000000000000000000000000000000000000000000081525081526020016040518060400160405280600481526020017ff09f8dba0000000000000000000000000000000000000000000000000000000081525081526020016040518060400160405280600481526020017ff09f8dab0000000000000000000000000000000000000000000000000000000081525081526020016040518060400160405280600481526020017ff09f8daa0000000000000000000000000000000000000000000000000000000081525081526020016040518060400160405280600481526020017ff09f8da90000000000000000000000000000000000000000000000000000000081525081526020016040518060400160405280600481526020017ff09f8da10000000000000000000000000000000000000000000000000000000081525081526020016040518060400160405280600481526020017ff09f8da60000000000000000000000000000000000000000000000000000000081525081526020016040518060400160405280600481526020017ff09fa6aa0000000000000000000000000000000000000000000000000000000081525081526020016040518060400160405280600481526020017ff09fa5a700000000000000000000000000000000000000000000000000000000815250815250600a90601062000b6a92919062000d36565b5034801562000b7857600080fd5b506040518060400160405280600981526020017f7265636970654e465400000000000000000000000000000000000000000000008152506040518060400160405280600481526020017f534e415800000000000000000000000000000000000000000000000000000000815250816000908051906020019062000bfd92919062000d9d565b50806001908051906020019062000c1692919062000d9d565b50505062000c646040518060400160405280601881526020017f54686973206973206d79204e465420636f6e747261637421000000000000000081525062000c6a60201b620010d41760201c565b62000fe8565b62000d0a8160405160240162000c81919062000efc565b6040516020818303038152906040527f41304fac000000000000000000000000000000000000000000000000000000007bffffffffffffffffffffffffffffffffffffffffffffffffffffffff19166020820180517bffffffffffffffffffffffffffffffffffffffffffffffffffffffff838183161783525050505062000d0d60201b60201c565b50565b60008151905060006a636f6e736f6c652e6c6f679050602083016000808483855afa5050505050565b82805482825590600052602060002090810192821562000d8a579160200282015b8281111562000d8957825182908051906020019062000d7892919062000d9d565b509160200191906001019062000d57565b5b50905062000d99919062000e2e565b5090565b82805462000dab9062000f72565b90600052602060002090601f01602090048101928262000dcf576000855562000e1b565b82601f1062000dea57805160ff191683800117855562000e1b565b8280016001018555821562000e1b579182015b8281111562000e1a57825182559160200191906001019062000dfd565b5b50905062000e2a919062000e56565b5090565b5b8082111562000e52576000818162000e48919062000e75565b5060010162000e2f565b5090565b5b8082111562000e7157600081600090555060010162000e57565b5090565b50805462000e839062000f72565b6000825580601f1062000e97575062000eb8565b601f01602090049060005260206000209081019062000eb7919062000e56565b5b50565b600062000ec88262000f20565b62000ed4818562000f2b565b935062000ee681856020860162000f3c565b62000ef18162000fd7565b840191505092915050565b6000602082019050818103600083015262000f18818462000ebb565b905092915050565b600081519050919050565b600082825260208201905092915050565b60005b8381101562000f5c57808201518184015260208101905062000f3f565b8381111562000f6c576000848401525b50505050565b6000600282049050600182168062000f8b57607f821691505b6020821081141562000fa25762000fa162000fa8565b5b50919050565b7f4e487b7100000000000000000000000000000000000000000000000000000000600052602260045260246000fd5b6000601f19601f8301169050919050565b61390f8062000ff86000396000f3fe608060405234801561001057600080fd5b506004361061010b5760003560e01c806370a08231116100a2578063b46c3ab111610071578063b46c3ab1146102dc578063b88d4fde146102f8578063c87b56dd14610314578063e985e9c514610344578063f84b0fff146103745761010b565b806370a0823114610242578063713d074d1461027257806395d89b41146102a2578063a22cb465146102c05761010b565b80630fae80fa116100de5780630fae80fa146101aa57806323b872dd146101da57806342842e0e146101f65780636352211e146102125761010b565b806301ffc9a71461011057806306fdde0314610140578063081812fc1461015e578063095ea7b31461018e575b600080fd5b61012a6004803603810190610125919061253c565b6103a4565b604051610137919061316a565b60405180910390f35b610148610486565b6040516101559190613185565b60405180910390f35b610178600480360381019061017391906125cf565b610518565b60405161018591906130da565b60405180910390f35b6101a860048036038101906101a39190612500565b61059d565b005b6101c460048036038101906101bf91906125cf565b6106b5565b6040516101d19190613185565b60405180910390f35b6101f460048036038101906101ef91906123fa565b6107d3565b005b610210600480360381019061020b91906123fa565b610833565b005b61022c600480360381019061022791906125cf565b610853565b60405161023991906130da565b60405180910390f35b61025c60048036038101906102579190612395565b610905565b60405161026991906133e5565b60405180910390f35b61028c600480360381019061028791906125cf565b6109bd565b6040516102999190613185565b60405180910390f35b6102aa610adb565b6040516102b79190613185565b60405180910390f35b6102da60048036038101906102d591906124c4565b610b6d565b005b6102f660048036038101906102f1919061258e565b610b83565b005b610312600480360381019061030d9190612449565b610d6e565b005b61032e600480360381019061032991906125cf565b610dd0565b60405161033b9190613185565b60405180910390f35b61035e600480360381019061035991906123be565b610f22565b60405161036b919061316a565b60405180910390f35b61038e600480360381019061038991906125cf565b610fb6565b60405161039b9190613185565b60405180910390f35b60007f80ac58cd000000000000000000000000000000000000000000000000000000007bffffffffffffffffffffffffffffffffffffffffffffffffffffffff1916827bffffffffffffffffffffffffffffffffffffffffffffffffffffffff1916148061046f57507f5b5e139f000000000000000000000000000000000000000000000000000000007bffffffffffffffffffffffffffffffffffffffffffffffffffffffff1916827bffffffffffffffffffffffffffffffffffffffffffffffffffffffff1916145b8061047f575061047e8261116d565b5b9050919050565b6060600080546104959061369f565b80601f01602080910402602001604051908101604052809291908181526020018280546104c19061369f565b801561050e5780601f106104e35761010080835404028352916020019161050e565b820191906000526020600020905b8154815290600101906020018083116104f157829003601f168201915b5050505050905090565b6000610523826111d7565b610562576040517f08c379a000000000000000000000000000000000000000000000000000000000815260040161055990613345565b60405180910390fd5b6004600083815260200190815260200160002060009054906101000a900473ffffffffffffffffffffffffffffffffffffffff169050919050565b60006105a882610853565b90508073ffffffffffffffffffffffffffffffffffffffff168373ffffffffffffffffffffffffffffffffffffffff161415610619576040517f08c379a0000000000000000000000000000000000000000000000000000000008152600401610610906133a5565b60405180910390fd5b8073ffffffffffffffffffffffffffffffffffffffff16610638611243565b73ffffffffffffffffffffffffffffffffffffffff161480610667575061066681610661611243565b610f22565b5b6106a6576040517f08c379a000000000000000000000000000000000000000000000000000000000815260040161069d90613285565b60405180910390fd5b6106b0838361124b565b505050565b606060006106e96106c584611304565b6040516020016106d5919061300d565b6040516020818303038152906040526114b1565b9050600880549050816106fc919061371a565b905060088181548110610738577f4e487b7100000000000000000000000000000000000000000000000000000000600052603260045260246000fd5b90600052602060002001805461074d9061369f565b80601f01602080910402602001604051908101604052809291908181526020018280546107799061369f565b80156107c65780601f1061079b576101008083540402835291602001916107c6565b820191906000526020600020905b8154815290600101906020018083116107a957829003601f168201915b5050505050915050919050565b6107e46107de611243565b826114e4565b610823576040517f08c379a000000000000000000000000000000000000000000000000000000000815260040161081a906133c5565b60405180910390fd5b61082e8383836115c2565b505050565b61084e83838360405180602001604052806000815250610d6e565b505050565b6000806002600084815260200190815260200160002060009054906101000a900473ffffffffffffffffffffffffffffffffffffffff169050600073ffffffffffffffffffffffffffffffffffffffff168173ffffffffffffffffffffffffffffffffffffffff1614156108fc576040517f08c379a00000000000000000000000000000000000000000000000000000000081526004016108f3906132c5565b60405180910390fd5b80915050919050565b60008073ffffffffffffffffffffffffffffffffffffffff168273ffffffffffffffffffffffffffffffffffffffff161415610976576040517f08c379a000000000000000000000000000000000000000000000000000000000815260040161096d906132a5565b60405180910390fd5b600360008373ffffffffffffffffffffffffffffffffffffffff1673ffffffffffffffffffffffffffffffffffffffff168152602001908152602001600020549050919050565b606060006109f16109cd84611304565b6040516020016109dd919061302f565b6040516020818303038152906040526114b1565b905060098054905081610a04919061371a565b905060098181548110610a40577f4e487b7100000000000000000000000000000000000000000000000000000000600052603260045260246000fd5b906000526020600020018054610a559061369f565b80601f0160208091040260200160405190810160405280929190818152602001828054610a819061369f565b8015610ace5780601f10610aa357610100808354040283529160200191610ace565b820191906000526020600020905b815481529060010190602001808311610ab157829003601f168201915b5050505050915050919050565b606060018054610aea9061369f565b80601f0160208091040260200160405190810160405280929190818152602001828054610b169061369f565b8015610b635780601f10610b3857610100808354040283529160200191610b63565b820191906000526020600020905b815481529060010190602001808311610b4657829003601f168201915b5050505050905090565b610b7f610b78611243565b838361181e565b5050565b6000610b8f600761198b565b90506000610b9c826106b5565b90506000610ba9836109bd565b90506000610bb684610fb6565b90506000838383604051602001610bcf93929190612f7d565b6040516020818303038152906040529050600086858585604051602001610bf99493929190612fae565b60405160208183030381529060405290506000610c3e83610c1984611999565b604051602001610c2a929190613051565b604051602081830303815290604052611999565b9050600081604051602001610c539190613096565b6040516020818303038152906040529050610ca26040518060400160405280601581526020017f0a2d2d2d2d2d2d2d2d2d2d2d2d2d2d2d2d2d2d2d2d00000000000000000000008152506110d4565b610cab816110d4565b610ce96040518060400160405280601581526020017f2d2d2d2d2d2d2d2d2d2d2d2d2d2d2d2d2d2d2d2d0a00000000000000000000008152506110d4565b610cf33389611b57565b610cfd8882611b75565b610d076007611be9565b610d2a604051806060016040528060258152602001613875602591398933611bff565b7f90e7a399c119b6fb01b0c5a980845dbd83c7c4a4bccad389993adc868f2092e03389604051610d5b929190613141565b60405180910390a1505050505050505050565b610d7f610d79611243565b836114e4565b610dbe576040517f08c379a0000000000000000000000000000000000000000000000000000000008152600401610db5906133c5565b60405180910390fd5b610dca84848484611c9e565b50505050565b6060610ddb826111d7565b610e1a576040517f08c379a0000000000000000000000000000000000000000000000000000000008152600401610e1190613325565b60405180910390fd5b6000600660008481526020019081526020016000208054610e3a9061369f565b80601f0160208091040260200160405190810160405280929190818152602001828054610e669061369f565b8015610eb35780601f10610e8857610100808354040283529160200191610eb3565b820191906000526020600020905b815481529060010190602001808311610e9657829003601f168201915b505050505090506000610ec4611cfa565b9050600081511415610eda578192505050610f1d565b600082511115610f0f578082604051602001610ef7929190612f59565b60405160208183030381529060405292505050610f1d565b610f1884611d11565b925050505b919050565b6000600560008473ffffffffffffffffffffffffffffffffffffffff1673ffffffffffffffffffffffffffffffffffffffff16815260200190815260200160002060008373ffffffffffffffffffffffffffffffffffffffff1673ffffffffffffffffffffffffffffffffffffffff16815260200190815260200160002060009054906101000a900460ff16905092915050565b60606000610fea610fc684611304565b604051602001610fd691906130b8565b6040516020818303038152906040526114b1565b9050600a8054905081610ffd919061371a565b9050600a8181548110611039577f4e487b7100000000000000000000000000000000000000000000000000000000600052603260045260246000fd5b90600052602060002001805461104e9061369f565b80601f016020809104026020016040519081016040528092919081815260200182805461107a9061369f565b80156110c75780601f1061109c576101008083540402835291602001916110c7565b820191906000526020600020905b8154815290600101906020018083116110aa57829003601f168201915b5050505050915050919050565b61116a816040516024016110e89190613185565b6040516020818303038152906040527f41304fac000000000000000000000000000000000000000000000000000000007bffffffffffffffffffffffffffffffffffffffffffffffffffffffff19166020820180517bffffffffffffffffffffffffffffffffffffffffffffffffffffffff8381831617835250505050611db8565b50565b60007f01ffc9a7000000000000000000000000000000000000000000000000000000007bffffffffffffffffffffffffffffffffffffffffffffffffffffffff1916827bffffffffffffffffffffffffffffffffffffffffffffffffffffffff1916149050919050565b60008073ffffffffffffffffffffffffffffffffffffffff166002600084815260200190815260200160002060009054906101000a900473ffffffffffffffffffffffffffffffffffffffff1673ffffffffffffffffffffffffffffffffffffffff1614159050919050565b600033905090565b816004600083815260200190815260200160002060006101000a81548173ffffffffffffffffffffffffffffffffffffffff021916908373ffffffffffffffffffffffffffffffffffffffff160217905550808273ffffffffffffffffffffffffffffffffffffffff166112be83610853565b73ffffffffffffffffffffffffffffffffffffffff167f8c5be1e5ebec7d5bd14f71427d1e84f3dd0314c0f7b2291e5b200ac8c7c3b92560405160405180910390a45050565b6060600082141561134c576040518060400160405280600181526020017f300000000000000000000000000000000000000000000000000000000000000081525090506114ac565b600082905060005b6000821461137e578080611367906136d1565b915050600a82611377919061352a565b9150611354565b60008167ffffffffffffffff8111156113c0577f4e487b7100000000000000000000000000000000000000000000000000000000600052604160045260246000fd5b6040519080825280601f01601f1916602001820160405280156113f25781602001600182028036833780820191505090505b5090505b600085146114a55760018261140b91906135b5565b9150600a8561141a919061371a565b603061142691906134d4565b60f81b818381518110611462577f4e487b7100000000000000000000000000000000000000000000000000000000600052603260045260246000fd5b60200101907effffffffffffffffffffffffffffffffffffffffffffffffffffffffffffff1916908160001a905350600a8561149e919061352a565b94506113f6565b8093505050505b919050565b6000816040516020016114c49190612f42565b6040516020818303038152906040528051906020012060001c9050919050565b60006114ef826111d7565b61152e576040517f08c379a000000000000000000000000000000000000000000000000000000000815260040161152590613265565b60405180910390fd5b600061153983610853565b90508073ffffffffffffffffffffffffffffffffffffffff168473ffffffffffffffffffffffffffffffffffffffff1614806115a857508373ffffffffffffffffffffffffffffffffffffffff1661159084610518565b73ffffffffffffffffffffffffffffffffffffffff16145b806115b957506115b88185610f22565b5b91505092915050565b8273ffffffffffffffffffffffffffffffffffffffff166115e282610853565b73ffffffffffffffffffffffffffffffffffffffff1614611638576040517f08c379a000000000000000000000000000000000000000000000000000000000815260040161162f90613365565b60405180910390fd5b600073ffffffffffffffffffffffffffffffffffffffff168273ffffffffffffffffffffffffffffffffffffffff1614156116a8576040517f08c379a000000000000000000000000000000000000000000000000000000000815260040161169f90613225565b60405180910390fd5b6116b3838383611de1565b6116be60008261124b565b6001600360008573ffffffffffffffffffffffffffffffffffffffff1673ffffffffffffffffffffffffffffffffffffffff168152602001908152602001600020600082825461170e91906135b5565b925050819055506001600360008473ffffffffffffffffffffffffffffffffffffffff1673ffffffffffffffffffffffffffffffffffffffff168152602001908152602001600020600082825461176591906134d4565b92505081905550816002600083815260200190815260200160002060006101000a81548173ffffffffffffffffffffffffffffffffffffffff021916908373ffffffffffffffffffffffffffffffffffffffff160217905550808273ffffffffffffffffffffffffffffffffffffffff168473ffffffffffffffffffffffffffffffffffffffff167fddf252ad1be2c89b69c2b068fc378daa952ba7f163c4a11628f55a4df523b3ef60405160405180910390a4505050565b8173ffffffffffffffffffffffffffffffffffffffff168373ffffffffffffffffffffffffffffffffffffffff16141561188d576040517f08c379a000000000000000000000000000000000000000000000000000000000815260040161188490613245565b60405180910390fd5b80600560008573ffffffffffffffffffffffffffffffffffffffff1673ffffffffffffffffffffffffffffffffffffffff16815260200190815260200160002060008473ffffffffffffffffffffffffffffffffffffffff1673ffffffffffffffffffffffffffffffffffffffff16815260200190815260200160002060006101000a81548160ff0219169083151502179055508173ffffffffffffffffffffffffffffffffffffffff168373ffffffffffffffffffffffffffffffffffffffff167f17307eab39ab6107e8899845ad3d59bd9653f200f220920489ca2b5937696c318360405161197e919061316a565b60405180910390a3505050565b600081600001549050919050565b606060008251905060008114156119c25760405180602001604052806000815250915050611b52565b600060036002836119d391906134d4565b6119dd919061352a565b60046119e9919061355b565b905060006020826119fa91906134d4565b67ffffffffffffffff811115611a39577f4e487b7100000000000000000000000000000000000000000000000000000000600052604160045260246000fd5b6040519080825280601f01601f191660200182016040528015611a6b5781602001600182028036833780820191505090505b509050600060405180606001604052806040815260200161389a604091399050600181016020830160005b86811015611b0f5760038101905062ffffff818a015116603f8160121c168401518060081b905060ff603f83600c1c1686015116810190508060081b905060ff603f8360061c1686015116810190508060081b905060ff603f831686015116810190508060e01b90508084526004840193505050611a96565b506003860660018114611b295760028114611b3957611b44565b613d3d60f01b6002830352611b44565b603d60f81b60018303525b508484525050819450505050505b919050565b611b71828260405180602001604052806000815250611de6565b5050565b611b7e826111d7565b611bbd576040517f08c379a0000000000000000000000000000000000000000000000000000000008152600401611bb4906132e5565b60405180910390fd5b80600660008481526020019081526020016000209080519060200190611be49291906121b9565b505050565b6001816000016000828254019250508190555050565b611c99838383604051602401611c17939291906131a7565b6040516020818303038152906040527fe3849f79000000000000000000000000000000000000000000000000000000007bffffffffffffffffffffffffffffffffffffffffffffffffffffffff19166020820180517bffffffffffffffffffffffffffffffffffffffffffffffffffffffff8381831617835250505050611db8565b505050565b611ca98484846115c2565b611cb584848484611e41565b611cf4576040517f08c379a0000000000000000000000000000000000000000000000000000000008152600401611ceb906131e5565b60405180910390fd5b50505050565b606060405180602001604052806000815250905090565b6060611d1c826111d7565b611d5b576040517f08c379a0000000000000000000000000000000000000000000000000000000008152600401611d5290613385565b60405180910390fd5b6000611d65611cfa565b90506000815111611d855760405180602001604052806000815250611db0565b80611d8f84611304565b604051602001611da0929190612f59565b6040516020818303038152906040525b915050919050565b60008151905060006a636f6e736f6c652e6c6f679050602083016000808483855afa5050505050565b505050565b611df08383611fd8565b611dfd6000848484611e41565b611e3c576040517f08c379a0000000000000000000000000000000000000000000000000000000008152600401611e33906131e5565b60405180910390fd5b505050565b6000611e628473ffffffffffffffffffffffffffffffffffffffff166121a6565b15611fcb578373ffffffffffffffffffffffffffffffffffffffff1663150b7a02611e8b611243565b8786866040518563ffffffff1660e01b8152600401611ead94939291906130f5565b602060405180830381600087803b158015611ec757600080fd5b505af1925050508015611ef857506040513d601f19601f82011682018060405250810190611ef59190612565565b60015b611f7b573d8060008114611f28576040519150601f19603f3d011682016040523d82523d6000602084013e611f2d565b606091505b50600081511415611f73576040517f08c379a0000000000000000000000000000000000000000000000000000000008152600401611f6a906131e5565b60405180910390fd5b805181602001fd5b63150b7a0260e01b7bffffffffffffffffffffffffffffffffffffffffffffffffffffffff1916817bffffffffffffffffffffffffffffffffffffffffffffffffffffffff191614915050611fd0565b600190505b949350505050565b600073ffffffffffffffffffffffffffffffffffffffff168273ffffffffffffffffffffffffffffffffffffffff161415612048576040517f08c379a000000000000000000000000000000000000000000000000000000000815260040161203f90613305565b60405180910390fd5b612051816111d7565b15612091576040517f08c379a000000000000000000000000000000000000000000000000000000000815260040161208890613205565b60405180910390fd5b61209d60008383611de1565b6001600360008473ffffffffffffffffffffffffffffffffffffffff1673ffffffffffffffffffffffffffffffffffffffff16815260200190815260200160002060008282546120ed91906134d4565b92505081905550816002600083815260200190815260200160002060006101000a81548173ffffffffffffffffffffffffffffffffffffffff021916908373ffffffffffffffffffffffffffffffffffffffff160217905550808273ffffffffffffffffffffffffffffffffffffffff16600073ffffffffffffffffffffffffffffffffffffffff167fddf252ad1be2c89b69c2b068fc378daa952ba7f163c4a11628f55a4df523b3ef60405160405180910390a45050565b600080823b905060008111915050919050565b8280546121c59061369f565b90600052602060002090601f0160209004810192826121e7576000855561222e565b82601f1061220057805160ff191683800117855561222e565b8280016001018555821561222e579182015b8281111561222d578251825591602001919060010190612212565b5b50905061223b919061223f565b5090565b5b80821115612258576000816000905550600101612240565b5090565b600061226f61226a84613431565b613400565b90508281526020810184848401111561228757600080fd5b61229284828561365d565b509392505050565b60006122ad6122a884613461565b613400565b9050828152602081018484840111156122c557600080fd5b6122d084828561365d565b509392505050565b6000813590506122e781613818565b92915050565b6000813590506122fc8161382f565b92915050565b60008135905061231181613846565b92915050565b60008151905061232681613846565b92915050565b600082601f83011261233d57600080fd5b813561234d84826020860161225c565b91505092915050565b600082601f83011261236757600080fd5b813561237784826020860161229a565b91505092915050565b60008135905061238f8161385d565b92915050565b6000602082840312156123a757600080fd5b60006123b5848285016122d8565b91505092915050565b600080604083850312156123d157600080fd5b60006123df858286016122d8565b92505060206123f0858286016122d8565b9150509250929050565b60008060006060848603121561240f57600080fd5b600061241d868287016122d8565b935050602061242e868287016122d8565b925050604061243f86828701612380565b9150509250925092565b6000806000806080858703121561245f57600080fd5b600061246d878288016122d8565b945050602061247e878288016122d8565b935050604061248f87828801612380565b925050606085013567ffffffffffffffff8111156124ac57600080fd5b6124b88782880161232c565b91505092959194509250565b600080604083850312156124d757600080fd5b60006124e5858286016122d8565b92505060206124f6858286016122ed565b9150509250929050565b6000806040838503121561251357600080fd5b6000612521858286016122d8565b925050602061253285828601612380565b9150509250929050565b60006020828403121561254e57600080fd5b600061255c84828501612302565b91505092915050565b60006020828403121561257757600080fd5b600061258584828501612317565b91505092915050565b6000602082840312156125a057600080fd5b600082013567ffffffffffffffff8111156125ba57600080fd5b6125c684828501612356565b91505092915050565b6000602082840312156125e157600080fd5b60006125ef84828501612380565b91505092915050565b612601816135e9565b82525050565b612610816135fb565b82525050565b600061262182613491565b61262b81856134a7565b935061263b81856020860161366c565b61264481613807565b840191505092915050565b600061265a8261349c565b61266481856134b8565b935061267481856020860161366c565b61267d81613807565b840191505092915050565b60006126938261349c565b61269d81856134c9565b93506126ad81856020860161366c565b80840191505092915050565b60006126c66032836134b8565b91507f4552433732313a207472616e7366657220746f206e6f6e20455243373231526560008301527f63656976657220696d706c656d656e74657200000000000000000000000000006020830152604082019050919050565b600061272c6058836134c9565b91507f222c20226465736372697074696f6e223a20224d617920796f7572207265636960008301527f706573206c69766520666f72657665722e222c2022696d616765223a2022646160208301527f74613a696d6167652f7376672b786d6c3b6261736536342c00000000000000006040830152605882019050919050565b60006127b8601c836134b8565b91507f4552433732313a20746f6b656e20616c7265616479206d696e746564000000006000830152602082019050919050565b60006127f86024836134b8565b91507f4552433732313a207472616e7366657220746f20746865207a65726f2061646460008301527f72657373000000000000000000000000000000000000000000000000000000006020830152604082019050919050565b600061285e6019836134b8565b91507f4552433732313a20617070726f766520746f2063616c6c6572000000000000006000830152602082019050919050565b600061289e600b836134c9565b91507f46495253545f534e41434b0000000000000000000000000000000000000000006000830152600b82019050919050565b60006128de600c836134c9565b91507f5345434f4e445f534e41434b00000000000000000000000000000000000000006000830152600c82019050919050565b600061291e602c836134b8565b91507f4552433732313a206f70657261746f7220717565727920666f72206e6f6e657860008301527f697374656e7420746f6b656e00000000000000000000000000000000000000006020830152604082019050919050565b60006129846001836134c9565b91507f20000000000000000000000000000000000000000000000000000000000000006000830152600182019050919050565b60006129c46038836134b8565b91507f4552433732313a20617070726f76652063616c6c6572206973206e6f74206f7760008301527f6e6572206e6f7220617070726f76656420666f7220616c6c00000000000000006020830152604082019050919050565b6000612a2a602a836134b8565b91507f4552433732313a2062616c616e636520717565727920666f7220746865207a6560008301527f726f2061646472657373000000000000000000000000000000000000000000006020830152604082019050919050565b6000612a906029836134b8565b91507f4552433732313a206f776e657220717565727920666f72206e6f6e657869737460008301527f656e7420746f6b656e00000000000000000000000000000000000000000000006020830152604082019050919050565b6000612af6602e836134b8565b91507f45524337323155524953746f726167653a2055524920736574206f66206e6f6e60008301527f6578697374656e7420746f6b656e0000000000000000000000000000000000006020830152604082019050919050565b6000612b5c6002836134c9565b91507f227d0000000000000000000000000000000000000000000000000000000000006000830152600282019050919050565b6000612b9c6020836134b8565b91507f4552433732313a206d696e7420746f20746865207a65726f20616464726573736000830152602082019050919050565b6000612bdc6031836134b8565b91507f45524337323155524953746f726167653a2055524920717565727920666f722060008301527f6e6f6e6578697374656e7420746f6b656e0000000000000000000000000000006020830152604082019050919050565b6000612c42602c836134b8565b91507f4552433732313a20617070726f76656420717565727920666f72206e6f6e657860008301527f697374656e7420746f6b656e00000000000000000000000000000000000000006020830152604082019050919050565b6000612ca86029836134b8565b91507f4552433732313a207472616e73666572206f6620746f6b656e2074686174206960008301527f73206e6f74206f776e00000000000000000000000000000000000000000000006020830152604082019050919050565b6000612d0e602f836134b8565b91507f4552433732314d657461646174613a2055524920717565727920666f72206e6f60008301527f6e6578697374656e7420746f6b656e00000000000000000000000000000000006020830152604082019050919050565b6000612d74600a836134c9565b91507f7b226e616d65223a2022000000000000000000000000000000000000000000006000830152600a82019050919050565b6000612db46021836134b8565b91507f4552433732313a20617070726f76616c20746f2063757272656e74206f776e6560008301527f72000000000000000000000000000000000000000000000000000000000000006020830152604082019050919050565b6000612e1a601d836134c9565b91507f646174613a6170706c69636174696f6e2f6a736f6e3b6261736536342c0000006000830152601d82019050919050565b6000612e5a6031836134b8565b91507f4552433732313a207472616e736665722063616c6c6572206973206e6f74206f60008301527f776e6572206e6f7220617070726f7665640000000000000000000000000000006020830152604082019050919050565b6000612ec06015836134c9565b91507f3c2f747370616e3e3c2f746578743e3c2f7376673e00000000000000000000006000830152601582019050919050565b6000612f00600b836134c9565b91507f54484952445f534e41434b0000000000000000000000000000000000000000006000830152600b82019050919050565b612f3c81613653565b82525050565b6000612f4e8284612688565b915081905092915050565b6000612f658285612688565b9150612f718284612688565b91508190509392505050565b6000612f898286612688565b9150612f958285612688565b9150612fa18284612688565b9150819050949350505050565b6000612fba8287612688565b9150612fc68286612688565b9150612fd182612977565b9150612fdd8285612688565b9150612fe882612977565b9150612ff48284612688565b9150612fff82612eb3565b915081905095945050505050565b600061301882612891565b91506130248284612688565b915081905092915050565b600061303a826128d1565b91506130468284612688565b915081905092915050565b600061305c82612d67565b91506130688285612688565b91506130738261271f565b915061307f8284612688565b915061308a82612b4f565b91508190509392505050565b60006130a182612e0d565b91506130ad8284612688565b915081905092915050565b60006130c382612ef3565b91506130cf8284612688565b915081905092915050565b60006020820190506130ef60008301846125f8565b92915050565b600060808201905061310a60008301876125f8565b61311760208301866125f8565b6131246040830185612f33565b81810360608301526131368184612616565b905095945050505050565b600060408201905061315660008301856125f8565b6131636020830184612f33565b9392505050565b600060208201905061317f6000830184612607565b92915050565b6000602082019050818103600083015261319f818461264f565b905092915050565b600060608201905081810360008301526131c1818661264f565b90506131d06020830185612f33565b6131dd60408301846125f8565b949350505050565b600060208201905081810360008301526131fe816126b9565b9050919050565b6000602082019050818103600083015261321e816127ab565b9050919050565b6000602082019050818103600083015261323e816127eb565b9050919050565b6000602082019050818103600083015261325e81612851565b9050919050565b6000602082019050818103600083015261327e81612911565b9050919050565b6000602082019050818103600083015261329e816129b7565b9050919050565b600060208201905081810360008301526132be81612a1d565b9050919050565b600060208201905081810360008301526132de81612a83565b9050919050565b600060208201905081810360008301526132fe81612ae9565b9050919050565b6000602082019050818103600083015261331e81612b8f565b9050919050565b6000602082019050818103600083015261333e81612bcf565b9050919050565b6000602082019050818103600083015261335e81612c35565b9050919050565b6000602082019050818103600083015261337e81612c9b565b9050919050565b6000602082019050818103600083015261339e81612d01565b9050919050565b600060208201905081810360008301526133be81612da7565b9050919050565b600060208201905081810360008301526133de81612e4d565b9050919050565b60006020820190506133fa6000830184612f33565b92915050565b6000604051905081810181811067ffffffffffffffff82111715613427576134266137d8565b5b8060405250919050565b600067ffffffffffffffff82111561344c5761344b6137d8565b5b601f19601f8301169050602081019050919050565b600067ffffffffffffffff82111561347c5761347b6137d8565b5b601f19601f8301169050602081019050919050565b600081519050919050565b600081519050919050565b600082825260208201905092915050565b600082825260208201905092915050565b600081905092915050565b60006134df82613653565b91506134ea83613653565b9250827fffffffffffffffffffffffffffffffffffffffffffffffffffffffffffffffff0382111561351f5761351e61374b565b5b828201905092915050565b600061353582613653565b915061354083613653565b9250826135505761354f61377a565b5b828204905092915050565b600061356682613653565b915061357183613653565b9250817fffffffffffffffffffffffffffffffffffffffffffffffffffffffffffffffff04831182151516156135aa576135a961374b565b5b828202905092915050565b60006135c082613653565b91506135cb83613653565b9250828210156135de576135dd61374b565b5b828203905092915050565b60006135f482613633565b9050919050565b60008115159050919050565b60007fffffffff0000000000000000000000000000000000000000000000000000000082169050919050565b600073ffffffffffffffffffffffffffffffffffffffff82169050919050565b6000819050919050565b82818337600083830152505050565b60005b8381101561368a57808201518184015260208101905061366f565b83811115613699576000848401525b50505050565b600060028204905060018216806136b757607f821691505b602082108114156136cb576136ca6137a9565b5b50919050565b60006136dc82613653565b91507fffffffffffffffffffffffffffffffffffffffffffffffffffffffffffffffff82141561370f5761370e61374b565b5b600182019050919050565b600061372582613653565b915061373083613653565b9250826137405761373f61377a565b5b828206905092915050565b7f4e487b7100000000000000000000000000000000000000000000000000000000600052601160045260246000fd5b7f4e487b7100000000000000000000000000000000000000000000000000000000600052601260045260246000fd5b7f4e487b7100000000000000000000000000000000000000000000000000000000600052602260045260246000fd5b7f4e487b7100000000000000000000000000000000000000000000000000000000600052604160045260246000fd5b6000601f19601f8301169050919050565b613821816135e9565b811461382c57600080fd5b50565b613838816135fb565b811461384357600080fd5b50565b61384f81613607565b811461385a57600080fd5b50565b61386681613653565b811461387157600080fd5b5056fe416e204e465420772f20494420257320686173206265656e206d696e74656420746f2025734142434445464748494a4b4c4d4e4f505152535455565758595a6162636465666768696a6b6c6d6e6f707172737475767778797a303132333435363738392b2fa26469706673582212207e711a9c2aff7d94fa922458391db59dcb6b4ab7b0d91ead05828ee2550bf7bb64736f6c63430008000033",
  "linkReferences": {},
  "deployedLinkReferences": {}
}